{
  "_format": "hh-sol-artifact-1",
  "contractName": "Identity",
  "sourceName": "contracts/IdentityContract.sol",
  "abi": [
    {
      "inputs": [],
      "stateMutability": "nonpayable",
      "type": "constructor"
    },
    {
      "anonymous": false,
      "inputs": [
        {
          "indexed": true,
          "internalType": "address",
          "name": "user",
          "type": "address"
        },
        {
          "indexed": false,
          "internalType": "string",
          "name": "name",
          "type": "string"
        }
      ],
      "name": "IdentityRegistered",
      "type": "event"
    },
    {
      "anonymous": false,
      "inputs": [
        {
          "indexed": true,
          "internalType": "address",
          "name": "user",
          "type": "address"
        },
        {
          "indexed": false,
          "internalType": "bool",
          "name": "status",
          "type": "bool"
        }
      ],
      "name": "IdentityVerified",
      "type": "event"
    },
    {
      "anonymous": false,
      "inputs": [
        {
          "indexed": true,
          "internalType": "address",
          "name": "user",
          "type": "address"
        },
        {
          "indexed": false,
          "internalType": "uint256",
          "name": "newScore",
          "type": "uint256"
        }
      ],
      "name": "ReputationUpdated",
      "type": "event"
    },
    {
      "inputs": [],
      "name": "admin",
      "outputs": [
        {
          "internalType": "address",
          "name": "",
          "type": "address"
        }
      ],
      "stateMutability": "view",
      "type": "function"
    },
    {
      "inputs": [
        {
          "internalType": "address",
          "name": "_user",
          "type": "address"
        }
      ],
      "name": "getIdentity",
      "outputs": [
        {
          "internalType": "string",
          "name": "name",
          "type": "string"
        },
        {
          "internalType": "string",
          "name": "aadharHash",
          "type": "string"
        },
        {
          "internalType": "string",
          "name": "panHash",
          "type": "string"
        },
        {
          "internalType": "string",
          "name": "drivingHash",
          "type": "string"
        },
        {
          "internalType": "uint256",
          "name": "reputationScore",
          "type": "uint256"
        },
        {
          "internalType": "bool",
          "name": "verified",
          "type": "bool"
        }
      ],
      "stateMutability": "view",
      "type": "function"
    },
    {
      "inputs": [
        {
          "internalType": "address",
          "name": "",
          "type": "address"
        }
      ],
      "name": "identities",
      "outputs": [
        {
          "internalType": "string",
          "name": "name",
          "type": "string"
        },
        {
          "internalType": "string",
          "name": "aadharHash",
          "type": "string"
        },
        {
          "internalType": "string",
          "name": "panHash",
          "type": "string"
        },
        {
          "internalType": "string",
          "name": "drivingHash",
          "type": "string"
        },
        {
          "internalType": "uint256",
          "name": "reputationScore",
          "type": "uint256"
        },
        {
          "internalType": "bool",
          "name": "verified",
          "type": "bool"
        }
      ],
      "stateMutability": "view",
      "type": "function"
    },
    {
      "inputs": [
        {
          "internalType": "string",
          "name": "_name",
          "type": "string"
        },
        {
          "internalType": "string",
          "name": "_aadharHash",
          "type": "string"
        },
        {
          "internalType": "string",
          "name": "_panHash",
          "type": "string"
        },
        {
          "internalType": "string",
          "name": "_drivingHash",
          "type": "string"
        }
      ],
      "name": "registerIdentity",
      "outputs": [],
      "stateMutability": "nonpayable",
      "type": "function"
    },
    {
      "inputs": [
        {
          "internalType": "address",
          "name": "_user",
          "type": "address"
        },
        {
          "internalType": "uint256",
          "name": "_score",
          "type": "uint256"
        }
      ],
      "name": "updateReputation",
      "outputs": [],
      "stateMutability": "nonpayable",
      "type": "function"
    },
    {
      "inputs": [
        {
          "internalType": "address",
          "name": "_user",
          "type": "address"
        }
      ],
      "name": "verifyIdentity",
      "outputs": [],
      "stateMutability": "nonpayable",
      "type": "function"
    }
  ],
  "bytecode": "0x6080604052348015600f57600080fd5b50600180546001600160a01b03191633179055610c81806100316000396000f3fe608060405234801561001057600080fd5b50600436106100625760003560e01c80632fea7b8114610067578063b34d30f414610095578063b5b90fd9146100aa578063f5c91a08146100bd578063f653b81e146100d0578063f851a440146100e3575b600080fd5b61007a61007536600461084f565b61010e565b60405161008c969594939291906108b7565b60405180910390f35b6100a86100a33660046109c4565b6103dd565b005b6100a86100b836600461084f565b6104cc565b6100a86100cb366004610a84565b61055d565b61007a6100de36600461084f565b6105db565b6001546100f6906001600160a01b031681565b6040516001600160a01b03909116815260200161008c565b6060806060806000806000806000896001600160a01b03166001600160a01b031681526020019081526020016000206040518060c001604052908160008201805461015890610aae565b80601f016020809104026020016040519081016040528092919081815260200182805461018490610aae565b80156101d15780601f106101a6576101008083540402835291602001916101d1565b820191906000526020600020905b8154815290600101906020018083116101b457829003601f168201915b505050505081526020016001820180546101ea90610aae565b80601f016020809104026020016040519081016040528092919081815260200182805461021690610aae565b80156102635780601f1061023857610100808354040283529160200191610263565b820191906000526020600020905b81548152906001019060200180831161024657829003601f168201915b5050505050815260200160028201805461027c90610aae565b80601f01602080910402602001604051908101604052809291908181526020018280546102a890610aae565b80156102f55780601f106102ca576101008083540402835291602001916102f5565b820191906000526020600020905b8154815290600101906020018083116102d857829003601f168201915b5050505050815260200160038201805461030e90610aae565b80601f016020809104026020016040519081016040528092919081815260200182805461033a90610aae565b80156103875780601f1061035c57610100808354040283529160200191610387565b820191906000526020600020905b81548152906001019060200180831161036a57829003601f168201915b5050509183525050600482015460208083019190915260059092015460ff161515604091820152825191830151908301516060840151608085015160a090950151939d929c50909a509850919650945092505050565b6040805160c08101825285815260208082018690528183018590526060820184905260326080830152600060a083018190523381529081905291909120815181906104289082610b37565b506020820151600182019061043d9082610b37565b50604082015160028201906104529082610b37565b50606082015160038201906104679082610b37565b506080820151600482015560a0909101516005909101805460ff191691151591909117905560405133907f9b6805eb7a1bee8a797c79c5f2a39a182f3d37f8b8cce5ec42371000c8115dfd906104be908790610bf6565b60405180910390a250505050565b6001546001600160a01b031633146104ff5760405162461bcd60e51b81526004016104f690610c09565b60405180910390fd5b6001600160a01b03811660008181526020818152604091829020600501805460ff1916600190811790915591519182527f61864590ac01b95e445535ed8623c869a900dad8074ee5e303f700ec878817c2910160405180910390a250565b6001546001600160a01b031633146105875760405162461bcd60e51b81526004016104f690610c09565b6001600160a01b0382166000818152602081815260409182902060040184905590518381527ffc577563f1b9a0461e24abef1e1fcc0d33d3d881f20b5df6dda59de4aae2c821910160405180910390a25050565b6000602081905290815260409020805481906105f690610aae565b80601f016020809104026020016040519081016040528092919081815260200182805461062290610aae565b801561066f5780601f106106445761010080835404028352916020019161066f565b820191906000526020600020905b81548152906001019060200180831161065257829003601f168201915b50505050509080600101805461068490610aae565b80601f01602080910402602001604051908101604052809291908181526020018280546106b090610aae565b80156106fd5780601f106106d2576101008083540402835291602001916106fd565b820191906000526020600020905b8154815290600101906020018083116106e057829003601f168201915b50505050509080600201805461071290610aae565b80601f016020809104026020016040519081016040528092919081815260200182805461073e90610aae565b801561078b5780601f106107605761010080835404028352916020019161078b565b820191906000526020600020905b81548152906001019060200180831161076e57829003601f168201915b5050505050908060030180546107a090610aae565b80601f01602080910402602001604051908101604052809291908181526020018280546107cc90610aae565b80156108195780601f106107ee57610100808354040283529160200191610819565b820191906000526020600020905b8154815290600101906020018083116107fc57829003601f168201915b50505050600483015460059093015491929160ff16905086565b80356001600160a01b038116811461084a57600080fd5b919050565b60006020828403121561086157600080fd5b61086a82610833565b9392505050565b6000815180845260005b818110156108975760208185018101518683018201520161087b565b506000602082860101526020601f19601f83011685010191505092915050565b60c0815260006108ca60c0830189610871565b82810360208401526108dc8189610871565b905082810360408401526108f08188610871565b905082810360608401526109048187610871565b6080840195909552505090151560a090910152949350505050565b634e487b7160e01b600052604160045260246000fd5b600082601f83011261094657600080fd5b813567ffffffffffffffff8111156109605761096061091f565b604051601f8201601f19908116603f0116810167ffffffffffffffff8111828210171561098f5761098f61091f565b6040528181528382016020018510156109a757600080fd5b816020850160208301376000918101602001919091529392505050565b600080600080608085870312156109da57600080fd5b843567ffffffffffffffff8111156109f157600080fd5b6109fd87828801610935565b945050602085013567ffffffffffffffff811115610a1a57600080fd5b610a2687828801610935565b935050604085013567ffffffffffffffff811115610a4357600080fd5b610a4f87828801610935565b925050606085013567ffffffffffffffff811115610a6c57600080fd5b610a7887828801610935565b91505092959194509250565b60008060408385031215610a9757600080fd5b610aa083610833565b946020939093013593505050565b600181811c90821680610ac257607f821691505b602082108103610ae257634e487b7160e01b600052602260045260246000fd5b50919050565b601f821115610b3257806000526020600020601f840160051c81016020851015610b0f5750805b601f840160051c820191505b81811015610b2f5760008155600101610b1b565b50505b505050565b815167ffffffffffffffff811115610b5157610b5161091f565b610b6581610b5f8454610aae565b84610ae8565b6020601f821160018114610b995760008315610b815750848201515b600019600385901b1c1916600184901b178455610b2f565b600084815260208120601f198516915b82811015610bc95787850151825560209485019460019092019101610ba9565b5084821015610be75786840151600019600387901b60f8161c191681555b50505050600190811b01905550565b60208152600061086a6020830184610871565b60208082526022908201527f4f6e6c792061646d696e2063616e20706572666f726d2074686973206163746960408201526137b760f11b60608201526080019056fea264697066735822122041bab6e99b528137536d4a5f31939fc153c656b6186d535d1f8345353803af9b64736f6c634300081c0033",
  "linkReferences": {},
  "deployedLinkReferences": {}
}